{
    "contractName": "Presale",
    "abi": [
        {
            "inputs": [
                {
                    "internalType": "address",
                    "name": "USDTAddress",
                    "type": "address"
                },
                {
                    "internalType": "uint256",
                    "name": "_USDTPrice",
                    "type": "uint256"
                },
                {
                    "internalType": "uint256",
                    "name": "_ETHPrice",
                    "type": "uint256"
                },
                {
                    "internalType": "uint256[]",
                    "name": "_stakePeriod",
                    "type": "uint256[]"
                },
                {
                    "internalType": "uint256[]",
                    "name": "_stakingRate",
                    "type": "uint256[]"
                }
            ],
            "stateMutability": "nonpayable",
            "type": "constructor"
        },
        {
            "anonymous": false,
            "inputs": [
                {
                    "indexed": true,
                    "internalType": "address",
                    "name": "from",
                    "type": "address"
                },
                {
                    "indexed": true,
                    "internalType": "uint256",
                    "name": "amount",
                    "type": "uint256"
                },
                {
                    "indexed": true,
                    "internalType": "uint256",
                    "name": "step",
                    "type": "uint256"
                }
            ],
            "name": "ClaimToken",
            "type": "event"
        },
        {
            "anonymous": false,
            "inputs": [
                {
                    "indexed": true,
                    "internalType": "address",
                    "name": "previousOwner",
                    "type": "address"
                },
                {
                    "indexed": true,
                    "internalType": "address",
                    "name": "newOwner",
                    "type": "address"
                }
            ],
            "name": "OwnershipTransferred",
            "type": "event"
        },
        {
            "stateMutability": "payable",
            "type": "fallback"
        },
        {
            "inputs": [],
            "name": "USDT",
            "outputs": [
                {
                    "internalType": "contract ERC20Interface",
                    "name": "",
                    "type": "address"
                }
            ],
            "stateMutability": "view",
            "type": "function"
        },
        {
            "inputs": [
                {
                    "internalType": "address",
                    "name": "to",
                    "type": "address"
                },
                {
                    "internalType": "uint256",
                    "name": "amount",
                    "type": "uint256"
                }
            ],
            "name": "claimETH",
            "outputs": [],
            "stateMutability": "nonpayable",
            "type": "function"
        },
        {
            "inputs": [
                {
                    "internalType": "address",
                    "name": "token",
                    "type": "address"
                },
                {
                    "internalType": "address",
                    "name": "to",
                    "type": "address"
                },
                {
                    "internalType": "uint256",
                    "name": "amount",
                    "type": "uint256"
                }
            ],
            "name": "claimToken",
            "outputs": [],
            "stateMutability": "nonpayable",
            "type": "function"
        },
        {
            "inputs": [
                {
                    "internalType": "uint256",
                    "name": "step",
                    "type": "uint256"
                }
            ],
            "name": "depositETH",
            "outputs": [],
            "stateMutability": "payable",
            "type": "function"
        },
        {
            "inputs": [
                {
                    "internalType": "uint256",
                    "name": "amount",
                    "type": "uint256"
                },
                {
                    "internalType": "uint256",
                    "name": "step",
                    "type": "uint256"
                }
            ],
            "name": "depositUSDT",
            "outputs": [],
            "stateMutability": "nonpayable",
            "type": "function"
        },
        {
            "inputs": [],
            "name": "getStakeInfo",
            "outputs": [
                {
                    "internalType": "uint256",
                    "name": "_steps",
                    "type": "uint256"
                },
                {
                    "components": [
                        {
                            "internalType": "uint256",
                            "name": "stakePeriod",
                            "type": "uint256"
                        },
                        {
                            "internalType": "uint256",
                            "name": "stakingRate",
                            "type": "uint256"
                        }
                    ],
                    "internalType": "struct Presale.StakeingType[]",
                    "name": "_stakingType",
                    "type": "tuple[]"
                }
            ],
            "stateMutability": "view",
            "type": "function"
        },
        {
            "inputs": [],
            "name": "owner",
            "outputs": [
                {
                    "internalType": "address",
                    "name": "",
                    "type": "address"
                }
            ],
            "stateMutability": "view",
            "type": "function"
        },
        {
            "inputs": [],
            "name": "renounceOwnership",
            "outputs": [],
            "stateMutability": "nonpayable",
            "type": "function"
        },
        {
            "inputs": [
                {
                    "internalType": "uint256",
                    "name": "_presaleEndTime",
                    "type": "uint256"
                }
            ],
            "name": "setPresaleEndTime",
            "outputs": [],
            "stateMutability": "nonpayable",
            "type": "function"
        },
        {
            "inputs": [
                {
                    "internalType": "uint256",
                    "name": "_presaleStartTime",
                    "type": "uint256"
                }
            ],
            "name": "setPresaleStartTime",
            "outputs": [],
            "stateMutability": "nonpayable",
            "type": "function"
        },
        {
            "inputs": [
                {
                    "internalType": "uint256[]",
                    "name": "_stakePeriod",
                    "type": "uint256[]"
                },
                {
                    "internalType": "uint256[]",
                    "name": "_stakingRate",
                    "type": "uint256[]"
                }
            ],
            "name": "setStakeTerm",
            "outputs": [],
            "stateMutability": "nonpayable",
            "type": "function"
        },
        {
            "inputs": [],
            "name": "totalPresaledAmount",
            "outputs": [
                {
                    "internalType": "uint256",
                    "name": "",
                    "type": "uint256"
                }
            ],
            "stateMutability": "view",
            "type": "function"
        },
        {
            "inputs": [
                {
                    "internalType": "address",
                    "name": "newOwner",
                    "type": "address"
                }
            ],
            "name": "transferOwnership",
            "outputs": [],
            "stateMutability": "nonpayable",
            "type": "function"
        },
        {
            "inputs": [
                {
                    "internalType": "address",
                    "name": "",
                    "type": "address"
                }
            ],
            "name": "userPresaledAmounts",
            "outputs": [
                {
                    "internalType": "uint256",
                    "name": "",
                    "type": "uint256"
                }
            ],
            "stateMutability": "view",
            "type": "function"
        },
        {
            "stateMutability": "payable",
            "type": "receive"
        }
    ],
    "bytecode": "60806040523480156200001157600080fd5b50604051620011c1380380620011c1833981016040819052620000349162000233565b600062000040620000de565b600080546001600160a01b0319166001600160a01b0383169081178255604051929350917f8be0079c531659141344cd1fd0a4f28419497f9722a3daafe3b4186f6b6457e0908290a350600180546001600160a01b0319166001600160a01b03871617905560028490556003839055426004819055620000c49062278d00620002ce565b600555620000d38282620000e2565b505050505062000333565b3390565b815160085560005b6008548110156200018d578281815181106200011657634e487b7160e01b600052603260045260246000fd5b602002602001015160096000838152602001908152602001600020600001819055508181815181106200015957634e487b7160e01b600052603260045260246000fd5b60209081029190910181015160008381526009909252604090912060010155806200018481620002e9565b915050620000ea565b505050565b600082601f830112620001a3578081fd5b815160206001600160401b0380831115620001c257620001c26200031d565b81830260405183828201018181108482111715620001e457620001e46200031d565b6040528481528381019250868401828801850189101562000203578687fd5b8692505b858310156200022757805184529284019260019290920191840162000207565b50979650505050505050565b600080600080600060a086880312156200024b578081fd5b85516001600160a01b038116811462000262578182fd5b60208701516040880151606089015192975090955093506001600160401b03808211156200028e578283fd5b6200029c89838a0162000192565b93506080880151915080821115620002b2578283fd5b50620002c18882890162000192565b9150509295509295909350565b60008219821115620002e457620002e462000307565b500190565b600060001982141562000300576200030062000307565b5060010190565b634e487b7160e01b600052601160045260246000fd5b634e487b7160e01b600052604160045260246000fd5b610e7e80620003436000396000f3fe6080604052600436106100e15760003560e01c806374a4030f1161007f578063cfa0136f11610059578063cfa0136f14610229578063d146447014610249578063f29d81b914610269578063f2fde38b14610289576100f2565b806374a4030f146101cf5780638da5cb5b146101f2578063c54e44eb14610214576100f2565b8063296cab55116100bb578063296cab551461015c5780634d6ffa141461017c5780635358fbda146101a7578063715018a6146101ba576100f2565b80630a553dcb146100fc5780630b94de9c1461011c578063125bfb661461013c576100f2565b366100f2576100f060006102a9565b005b6100f060006102a9565b34801561010857600080fd5b506100f0610117366004610c36565b6103cf565b34801561012857600080fd5b506100f0610137366004610b74565b610538565b34801561014857600080fd5b506100f0610157366004610b39565b6105a8565b34801561016857600080fd5b506100f0610177366004610c1e565b610663565b34801561018857600080fd5b5061019161069d565b60405161019e9190610d4a565b60405180910390f35b6100f06101b5366004610c1e565b6102a9565b3480156101c657600080fd5b506100f06106a3565b3480156101db57600080fd5b506101e4610722565b60405161019e929190610d53565b3480156101fe57600080fd5b50610207610832565b60405161019e9190610c57565b34801561022057600080fd5b50610207610841565b34801561023557600080fd5b506100f0610244366004610c1e565b610850565b34801561025557600080fd5b50610191610264366004610b18565b61088a565b34801561027557600080fd5b506100f0610284366004610b9d565b61089c565b34801561029557600080fd5b506100f06102a4366004610b18565b6108df565b426004541080156102bb575042600554115b6102e05760405162461bcd60e51b81526004016102d790610d23565b60405180910390fd5b6102e8610832565b6001600160a01b03166108fc349081150290604051600060405180830381858888f19350505050158015610320573d6000803e3d6000fd5b50600081815260096020526040812060010154600354620f424091906103469034610de2565b6103509190610de2565b61035a9190610dc2565b3360009081526006602052604081208054929350839290919061037e908490610daa565b9250508190555080600760008282546103979190610daa565b90915550506040518290829033907f7f4752786b0cfdd93a4b6e1f0e393299418bbc5c583bc16bc0edd3f3ae193e0e90600090a45050565b426004541080156103e1575042600554115b6103fd5760405162461bcd60e51b81526004016102d790610d23565b6001546001600160a01b03166323b872dd33610417610832565b856040518463ffffffff1660e01b815260040161043693929190610c6b565b602060405180830381600087803b15801561045057600080fd5b505af1158015610464573d6000803e3d6000fd5b505050506040513d601f19601f820116820180604052508101906104889190610bfe565b50600081815260096020526040812060010154600254620f424091906104ae9086610de2565b6104b89190610de2565b6104c29190610dc2565b336000908152600660205260408120805492935083929091906104e6908490610daa565b9250508190555080600760008282546104ff9190610daa565b90915550506040518290829033907f7f4752786b0cfdd93a4b6e1f0e393299418bbc5c583bc16bc0edd3f3ae193e0e90600090a4505050565b610540610920565b6000546001600160a01b0390811691161461056d5760405162461bcd60e51b81526004016102d790610cee565b6040516001600160a01b0383169082156108fc029083906000818181858888f193505050501580156105a3573d6000803e3d6000fd5b505050565b6105b0610920565b6000546001600160a01b039081169116146105dd5760405162461bcd60e51b81526004016102d790610cee565b60405163a9059cbb60e01b81526001600160a01b0384169063a9059cbb9061060b9085908590600401610c8f565b602060405180830381600087803b15801561062557600080fd5b505af1158015610639573d6000803e3d6000fd5b505050506040513d601f19601f8201168201806040525081019061065d9190610bfe565b50505050565b61066b610920565b6000546001600160a01b039081169116146106985760405162461bcd60e51b81526004016102d790610cee565b600455565b60075481565b6106ab610920565b6000546001600160a01b039081169116146106d85760405162461bcd60e51b81526004016102d790610cee565b600080546040516001600160a01b03909116907f8be0079c531659141344cd1fd0a4f28419497f9722a3daafe3b4186f6b6457e0908390a3600080546001600160a01b0319169055565b60085460608167ffffffffffffffff81111561074e57634e487b7160e01b600052604160045260246000fd5b60405190808252806020026020018201604052801561078757816020015b610774610a4a565b81526020019060019003908161076c5790505b50905060005b8281101561082d5760008181526009602052604090205482518390839081106107c657634e487b7160e01b600052603260045260246000fd5b60200260200101516000018181525050600960008281526020019081526020016000206001015482828151811061080d57634e487b7160e01b600052603260045260246000fd5b60209081029190910181015101528061082581610e01565b91505061078d565b509091565b6000546001600160a01b031690565b6001546001600160a01b031681565b610858610920565b6000546001600160a01b039081169116146108855760405162461bcd60e51b81526004016102d790610cee565b600555565b60066020526000908152604090205481565b6108a4610920565b6000546001600160a01b039081169116146108d15760405162461bcd60e51b81526004016102d790610cee565b6108db8282610924565b5050565b6108e7610920565b6000546001600160a01b039081169116146109145760405162461bcd60e51b81526004016102d790610cee565b61091d816109c9565b50565b3390565b815160085560005b6008548110156105a35782818151811061095657634e487b7160e01b600052603260045260246000fd5b6020026020010151600960008381526020019081526020016000206000018190555081818151811061099857634e487b7160e01b600052603260045260246000fd5b60209081029190910181015160008381526009909252604090912060010155806109c181610e01565b91505061092c565b6001600160a01b0381166109ef5760405162461bcd60e51b81526004016102d790610ca8565b600080546040516001600160a01b03808516939216917f8be0079c531659141344cd1fd0a4f28419497f9722a3daafe3b4186f6b6457e091a3600080546001600160a01b0319166001600160a01b0392909216919091179055565b604051806040016040528060008152602001600081525090565b80356001600160a01b0381168114610a7b57600080fd5b919050565b600082601f830112610a90578081fd5b8135602067ffffffffffffffff80831115610aad57610aad610e32565b81830260405183828201018181108482111715610acc57610acc610e32565b60405284815283810192508684018288018501891015610aea578687fd5b8692505b85831015610b0c578035845292840192600192909201918401610aee565b50979650505050505050565b600060208284031215610b29578081fd5b610b3282610a64565b9392505050565b600080600060608486031215610b4d578182fd5b610b5684610a64565b9250610b6460208501610a64565b9150604084013590509250925092565b60008060408385031215610b86578182fd5b610b8f83610a64565b946020939093013593505050565b60008060408385031215610baf578182fd5b823567ffffffffffffffff80821115610bc6578384fd5b610bd286838701610a80565b93506020850135915080821115610be7578283fd5b50610bf485828601610a80565b9150509250929050565b600060208284031215610c0f578081fd5b81518015158114610b32578182fd5b600060208284031215610c2f578081fd5b5035919050565b60008060408385031215610c48578182fd5b50508035926020909101359150565b6001600160a01b0391909116815260200190565b6001600160a01b039384168152919092166020820152604081019190915260600190565b6001600160a01b03929092168252602082015260400190565b60208082526026908201527f4f776e61626c653a206e6577206f776e657220697320746865207a65726f206160408201526564647265737360d01b606082015260800190565b6020808252818101527f4f776e61626c653a2063616c6c6572206973206e6f7420746865206f776e6572604082015260600190565b6020808252600d908201526c1c1c995cd85b1948115b991959609a1b604082015260600190565b90815260200190565b60006040808301858452602082818601528186518084526060870191508288019350855b81811015610d9c57845180518452840151848401529383019391850191600101610d77565b509098975050505050505050565b60008219821115610dbd57610dbd610e1c565b500190565b600082610ddd57634e487b7160e01b81526012600452602481fd5b500490565b6000816000190483118215151615610dfc57610dfc610e1c565b500290565b6000600019821415610e1557610e15610e1c565b5060010190565b634e487b7160e01b600052601160045260246000fd5b634e487b7160e01b600052604160045260246000fdfea26469706673582212202ed69643fc589e7b22c431bbbb1ea00887d7ed1837286889a5851ca89012128e64736f6c63430008000033",
    "sourcePath": "f:/2021_projects/2021_blockchain projects/ICICB_blockchain_release/presale_crossChain/contract/contracts/presale.sol",
    "compiler": {
        "name": "solc",
        "version": "0.8.0+commit.c7dfd78e"
    },
    "functionHashes": {
        "USDT()": "c54e44eb",
        "claimETH(address,uint256)": "0b94de9c",
        "claimToken(address,address,uint256)": "125bfb66",
        "depositETH(uint256)": "5358fbda",
        "depositUSDT(uint256,uint256)": "0a553dcb",
        "getStakeInfo()": "74a4030f",
        "owner()": "8da5cb5b",
        "renounceOwnership()": "715018a6",
        "setPresaleEndTime(uint256)": "cfa0136f",
        "setPresaleStartTime(uint256)": "296cab55",
        "setStakeTerm(uint256[],uint256[])": "f29d81b9",
        "totalPresaledAmount()": "4d6ffa14",
        "transferOwnership(address)": "f2fde38b",
        "userPresaledAmounts(address)": "d1464470"
    },
    "gasEstimates": {
        "creation": {
            "codeDepositCost": "742000",
            "executionCost": "infinite",
            "totalCost": "infinite"
        },
        "external": {
            "": "infinite",
            "USDT()": "1137",
            "claimETH(address,uint256)": "infinite",
            "claimToken(address,address,uint256)": "infinite",
            "depositETH(uint256)": "infinite",
            "depositUSDT(uint256,uint256)": "infinite",
            "getStakeInfo()": "infinite",
            "owner()": "1115",
            "renounceOwnership()": "24293",
            "setPresaleEndTime(uint256)": "21125",
            "setPresaleStartTime(uint256)": "21126",
            "setStakeTerm(uint256[],uint256[])": "infinite",
            "totalPresaledAmount()": "1073",
            "transferOwnership(address)": "24556",
            "userPresaledAmounts(address)": "1296"
        },
        "internal": {
            "_setStakeTerm(uint256[] memory,uint256[] memory)": "infinite"
        }
    }
}